:100000009300f07f93801040138100039301000e52
:10001000370500b093051500130a7007930a100600
:10002000130b3007930b4006130c00002300310024
:1000300003060500e30e06fe230005000386050007
:10004000630a5601630e7601630246036306660384
:100050006ff01ffe1301f1ff230031006ff05ffd11
:1000600013011100230031006ff09ffc130101fe0a
:10007000230031006ff0dffb130101022300310088
:100080006ff01ffb000000000000000000000000f7
:100bc000000000000000000000000000000000e045
:100bd000e0e0e00000000000000000000000000075
:100be0000000000000000000000000000000e00025
:100bf0000000e00000000000000000000000000015
:100c000000000000000000e0e0e0e0e0e0e0e0e004
:100c1000e0e0e0e0e0e0e0e0e000000000000000f4
:100c200000000000000000e0e0e0e0e0e0e0e0e0e4
:100c3000e0e0e0e0e0e0e0e0e000000000000000d4
:100c400000000000000000e0e0e0e0e0e0e0e0e0c4
:100c5000e0e0e0e0e0e0e0e0e000000000000000b4
:100c6000000000e0e0e0e0e0e0e0e0e0e0e0e0e024
:100c7000e0e0e0e0e0e0e0e0e0e0e0e0e000000014
:100c8000000000e0000000e00000e0e0e0e0e0e064
:100c9000e0e0e0e0e0e0e0e0e0000000e000000094
:100ca000000000e0000000e00000000000e0e0e0e4
:100cb000e0e0e0e000000000e0000000e0000000f4
:100cc000000000e0000000e00000000000e0e0e0c4
:100cd000e0e0e0e000000000e0000000e0000000d4
:100ce000000000e0000000e00000000000e0e0e0a4
:100cf000e0e0e0e000000000e0000000e0000000b4
:100d0000000000e0000000e00000000000e0e0e083
:100d1000e0e0e0e000000000e0000000e000000093
:100d2000000000e0000000e00000000000e0e0e063
:100d3000e0e0e0e000000000e0000000e000000073
:100d4000000000e0000000e00000000000e0e0e043
:100d5000e0e0e0e000000000e0000000e000000053
:100d6000000000e0000000e00000000000e0e0e023
:100d7000e0e0e0e000000000e0000000e000000033
:100d8000000000e0000000e00000000000e0e0e003
:100d9000e0e0e0e000000000e0000000e000000013
:100da000000000e0000000e00000000000e0e0e0e3
:100db000e0e0e0e000000000e0000000e0000000f3
:100dc000000000e0000000e00000000000e0e0e0c3
:100dd000e0e0e0e000000000e0000000e0000000d3
:100de000000000e0000000e0e0e0e0e0e0e0e0e043
:100df000e0e0e0e0e0e0e0e0e0000000e000000033
:100e0000000000e0000000000000000000e0e0e062
:100e1000e0e0e0000000000000000000e000000052
:100e2000000000e0000000000000000000e0e00022
:100e300000e0e0000000000000000000e000000012
:100e40000000e0e0e0e0e0e0e0e0e0e0e0e0e0e062
:100e5000e0e0e0e0e0e0e0e0e0e0e0e0e000000032
:100e60000000e000000000000000000000e0e000e2
:100e700000e0e0000000000000000000e0000000d2
:100e80000000e000000000000000000000e0e000c2
:100e900000e0e0000000000000000000e0000000b2
:100ea0000000e000000000000000000000e0e000a2
:100eb00000e0e0000000000000000000e000000092
:100ec0000000e000000000000000000000e0e00082
:100ed00000e0e0000000000000000000e000000072
:100ee0000000e000000000000000000000e0e0e082
:100ef000e0e0e0000000000000000000e000000072
:100f00000000e000000000000000000000e0e0e061
:100f1000e0e0e0000000000000000000e000000051
:100f20000000e0e0e0e0e0e0e0e0e0e0e0e0e0e081
:100f3000e0e0e0e0e0e0e0e0e0e0e0e0e000000051
:100f4000000000e000000000000000000000e0e001
:100f5000e0e000000000000000000000e0000000f1
:100f6000000000e0000000000000000000000000a1
:100f7000000000000000000000000000e000000091
:100f8000000000e000000000000000000000000081
:100f9000000000000000000000000000e000000071
:100fa000000000e000000000000000000000000061
:100fb000000000000000000000000000e000000051
:100fc000000000e0e0e0e0e0e0e0e0e0e0e0e0e0c1
:100fd000e0e0e0e0e0e0e0e0e0e0e0e0e0000000b1
:00000001FF